{
  "contractName": "DonorContract",
  "abi": [
    {
      "inputs": [
        {
          "internalType": "string",
          "name": "_fullname",
          "type": "string"
        },
        {
          "internalType": "uint256",
          "name": "_age",
          "type": "uint256"
        },
        {
          "internalType": "string",
          "name": "_gender",
          "type": "string"
        },
        {
          "internalType": "string",
          "name": "_medical_id",
          "type": "string"
        },
        {
          "internalType": "string",
          "name": "_blood_type",
          "type": "string"
        },
        {
          "internalType": "string[]",
          "name": "_organ",
          "type": "string[]"
        },
        {
          "internalType": "uint256",
          "name": "_weight",
          "type": "uint256"
        },
        {
          "internalType": "uint256",
          "name": "_height",
          "type": "uint256"
        }
      ],
      "name": "setDonors",
      "outputs": [],
      "stateMutability": "nonpayable",
      "type": "function"
    },
    {
      "inputs": [
        {
          "internalType": "string",
          "name": "_fullname",
          "type": "string"
        },
        {
          "internalType": "uint256",
          "name": "_age",
          "type": "uint256"
        },
        {
          "internalType": "string",
          "name": "_gender",
          "type": "string"
        },
        {
          "internalType": "string",
          "name": "_medical_id",
          "type": "string"
        },
        {
          "internalType": "string",
          "name": "_blood_type",
          "type": "string"
        },
        {
          "internalType": "string[]",
          "name": "_organ",
          "type": "string[]"
        },
        {
          "internalType": "uint256",
          "name": "_weight",
          "type": "uint256"
        },
        {
          "internalType": "uint256",
          "name": "_height",
          "type": "uint256"
        },
        {
          "internalType": "string",
          "name": "_inpatient",
          "type": "string"
        }
      ],
      "name": "setPatients",
      "outputs": [],
      "stateMutability": "nonpayable",
      "type": "function"
    },
    {
      "inputs": [
        {
          "internalType": "string",
          "name": "_medical_id",
          "type": "string"
        }
      ],
      "name": "getDonor",
      "outputs": [
        {
          "internalType": "string",
          "name": "",
          "type": "string"
        },
        {
          "internalType": "uint256",
          "name": "",
          "type": "uint256"
        },
        {
          "internalType": "string",
          "name": "",
          "type": "string"
        },
        {
          "internalType": "string",
          "name": "",
          "type": "string"
        },
        {
          "internalType": "string[]",
          "name": "",
          "type": "string[]"
        },
        {
          "internalType": "uint256",
          "name": "",
          "type": "uint256"
        },
        {
          "internalType": "uint256",
          "name": "",
          "type": "uint256"
        }
      ],
      "stateMutability": "view",
      "type": "function",
      "constant": true
    },
    {
      "inputs": [
        {
          "internalType": "string",
          "name": "_medical_id",
          "type": "string"
        }
      ],
      "name": "getPatient",
      "outputs": [
        {
          "components": [
            {
              "internalType": "string",
              "name": "fullname",
              "type": "string"
            },
            {
              "internalType": "uint256",
              "name": "age",
              "type": "uint256"
            },
            {
              "internalType": "string",
              "name": "gender",
              "type": "string"
            },
            {
              "internalType": "string",
              "name": "medical_id",
              "type": "string"
            },
            {
              "internalType": "string",
              "name": "blood_type",
              "type": "string"
            },
            {
              "internalType": "string[]",
              "name": "organ",
              "type": "string[]"
            },
            {
              "internalType": "uint256",
              "name": "weight",
              "type": "uint256"
            },
            {
              "internalType": "uint256",
              "name": "height",
              "type": "uint256"
            },
            {
              "internalType": "string",
              "name": "inpatient",
              "type": "string"
            }
          ],
          "internalType": "struct DonorContract.patient",
          "name": "",
          "type": "tuple"
        }
      ],
      "stateMutability": "view",
      "type": "function",
      "constant": true
    },
    {
      "inputs": [
        {
          "internalType": "string",
          "name": "_medical_id",
          "type": "string"
        }
      ],
      "name": "validateDonor",
      "outputs": [
        {
          "internalType": "bool",
          "name": "",
          "type": "bool"
        }
      ],
      "stateMutability": "view",
      "type": "function",
      "constant": true
    },
    {
      "inputs": [
        {
          "internalType": "string",
          "name": "_medical_id",
          "type": "string"
        }
      ],
      "name": "validatePatient",
      "outputs": [
        {
          "internalType": "bool",
          "name": "",
          "type": "bool"
        }
      ],
      "stateMutability": "view",
      "type": "function",
      "constant": true
    },
    {
      "inputs": [],
      "name": "getAllDonorIDs",
      "outputs": [
        {
          "internalType": "string[]",
          "name": "",
          "type": "string[]"
        }
      ],
      "stateMutability": "view",
      "type": "function",
      "constant": true
    },
    {
      "inputs": [],
      "name": "getAllPatientIDs",
      "outputs": [
        {
          "internalType": "string[]",
          "name": "",
          "type": "string[]"
        }
      ],
      "stateMutability": "view",
      "type": "function",
      "constant": true
    },
    {
      "inputs": [],
      "name": "getCountOfDonors",
      "outputs": [
        {
          "internalType": "uint256",
          "name": "",
          "type": "uint256"
        }
      ],
      "stateMutability": "view",
      "type": "function",
      "constant": true
    },
    {
      "inputs": [],
      "name": "getCountOfPatients",
      "outputs": [
        {
          "internalType": "uint256",
          "name": "",
          "type": "uint256"
        }
      ],
      "stateMutability": "view",
      "type": "function",
      "constant": true
    }
  ],
  "bytecode": "0x608060405234801561001057600080fd5b50611e37806100206000396000f3fe608060405234801561001057600080fd5b506004361061009e5760003560e01c80639b811209116100665780639b8112091461014d578063b38856101461017d578063d0544a8d1461019b578063e79a7a2e146101b9578063ef1215c3146101e95761009e565b80632cf42e5a146100a357806331dad732146100bf57806336aa555e146100f5578063778b5f251461011157806389d53d001461012f575b600080fd5b6100bd60048036038101906100b89190611565565b610219565b005b6100d960048036038101906100d491906116d7565b61048f565b6040516100ec97969594939291906118c3565b60405180910390f35b61010f600480360381019061010a919061194e565b610815565b005b610119610a54565b6040516101269190611a90565b60405180910390f35b610137610b2d565b6040516101449190611ab2565b60405180910390f35b610167600480360381019061016291906116d7565b610b3a565b6040516101749190611ae8565b60405180910390f35b610185610bc3565b6040516101929190611ab2565b60405180910390f35b6101a3610bd0565b6040516101b09190611a90565b60405180910390f35b6101d360048036038101906101ce91906116d7565b610ca9565b6040516101e09190611c80565b60405180910390f35b61020360048036038101906101fe91906116d7565b6110b3565b6040516102109190611ae8565b60405180910390f35b8560405160200161022a9190611cde565b604051602081830303815290604052805190602001206000876040516102509190611cde565b90815260200160405180910390206003016040516020016102719190611dea565b60405160208183030381529060405280519060200120141561029257600080fd5b886001876040516102a39190611cde565b908152602001604051809103902060000190805190602001906102c792919061113c565b50876001876040516102d99190611cde565b908152602001604051809103902060010181905550866001876040516102ff9190611cde565b9081526020016040518091039020600201908051906020019061032392919061113c565b50856001876040516103359190611cde565b9081526020016040518091039020600301908051906020019061035992919061113c565b508460018760405161036b9190611cde565b9081526020016040518091039020600401908051906020019061038f92919061113c565b50836001876040516103a19190611cde565b908152602001604051809103902060050190805190602001906103c59291906111c2565b50826001876040516103d79190611cde565b908152602001604051809103902060060181905550816001876040516103fd9190611cde565b908152602001604051809103902060070181905550806001876040516104239190611cde565b9081526020016040518091039020600801908051906020019061044792919061113c565b5060038690806001815401808255809150506001900390600052602060002001600090919091909150908051906020019061048392919061113c565b50505050505050505050565b6060600060608060606000806000886040516104ab9190611cde565b90815260200160405180910390206000016000896040516104cc9190611cde565b90815260200160405180910390206001015460008a6040516104ee9190611cde565b908152602001604051809103902060020160008b60405161050f9190611cde565b908152602001604051809103902060040160008c6040516105309190611cde565b908152602001604051809103902060050160008d6040516105519190611cde565b90815260200160405180910390206006015460008e6040516105739190611cde565b90815260200160405180910390206007015486805461059190611d24565b80601f01602080910402602001604051908101604052809291908181526020018280546105bd90611d24565b801561060a5780601f106105df5761010080835404028352916020019161060a565b820191906000526020600020905b8154815290600101906020018083116105ed57829003601f168201915b5050505050965084805461061d90611d24565b80601f016020809104026020016040519081016040528092919081815260200182805461064990611d24565b80156106965780601f1061066b57610100808354040283529160200191610696565b820191906000526020600020905b81548152906001019060200180831161067957829003601f168201915b505050505094508380546106a990611d24565b80601f01602080910402602001604051908101604052809291908181526020018280546106d590611d24565b80156107225780601f106106f757610100808354040283529160200191610722565b820191906000526020600020905b81548152906001019060200180831161070557829003601f168201915b5050505050935082805480602002602001604051908101604052809291908181526020016000905b828210156107f657838290600052602060002001805461076990611d24565b80601f016020809104026020016040519081016040528092919081815260200182805461079590611d24565b80156107e25780601f106107b7576101008083540402835291602001916107e2565b820191906000526020600020905b8154815290600101906020018083116107c557829003601f168201915b50505050508152602001906001019061074a565b5050505092509650965096509650965096509650919395979092949650565b846040516020016108269190611cde565b6040516020818303038152906040528051906020012060008660405161084c9190611cde565b908152602001604051809103902060030160405160200161086d9190611dea565b60405160208183030381529060405280519060200120141561088e57600080fd5b8760008660405161089f9190611cde565b908152602001604051809103902060000190805190602001906108c392919061113c565b50866000866040516108d59190611cde565b908152602001604051809103902060010181905550856000866040516108fb9190611cde565b9081526020016040518091039020600201908051906020019061091f92919061113c565b50846000866040516109319190611cde565b9081526020016040518091039020600301908051906020019061095592919061113c565b50836000866040516109679190611cde565b9081526020016040518091039020600401908051906020019061098b92919061113c565b508260008660405161099d9190611cde565b908152602001604051809103902060050190805190602001906109c19291906111c2565b50816000866040516109d39190611cde565b908152602001604051809103902060060181905550806000866040516109f99190611cde565b908152602001604051809103902060070181905550600285908060018154018082558091505060019003906000526020600020016000909190919091509080519060200190610a4992919061113c565b505050505050505050565b60606002805480602002602001604051908101604052809291908181526020016000905b82821015610b24578382906000526020600020018054610a9790611d24565b80601f0160208091040260200160405190810160405280929190818152602001828054610ac390611d24565b8015610b105780601f10610ae557610100808354040283529160200191610b10565b820191906000526020600020905b815481529060010190602001808311610af357829003601f168201915b505050505081526020019060010190610a78565b50505050905090565b6000600280549050905090565b600081604051602001610b4d9190611cde565b60405160208183030381529060405280519060200120600083604051610b739190611cde565b9081526020016040518091039020600301604051602001610b949190611dea565b604051602081830303815290604052805190602001201415610bb95760019050610bbe565b600090505b919050565b6000600380549050905090565b60606003805480602002602001604051908101604052809291908181526020016000905b82821015610ca0578382906000526020600020018054610c1390611d24565b80601f0160208091040260200160405190810160405280929190818152602001828054610c3f90611d24565b8015610c8c5780601f10610c6157610100808354040283529160200191610c8c565b820191906000526020600020905b815481529060010190602001808311610c6f57829003601f168201915b505050505081526020019060010190610bf4565b50505050905090565b610cb1611222565b600182604051610cc19190611cde565b908152602001604051809103902060405180610120016040529081600082018054610ceb90611d24565b80601f0160208091040260200160405190810160405280929190818152602001828054610d1790611d24565b8015610d645780601f10610d3957610100808354040283529160200191610d64565b820191906000526020600020905b815481529060010190602001808311610d4757829003601f168201915b5050505050815260200160018201548152602001600282018054610d8790611d24565b80601f0160208091040260200160405190810160405280929190818152602001828054610db390611d24565b8015610e005780601f10610dd557610100808354040283529160200191610e00565b820191906000526020600020905b815481529060010190602001808311610de357829003601f168201915b50505050508152602001600382018054610e1990611d24565b80601f0160208091040260200160405190810160405280929190818152602001828054610e4590611d24565b8015610e925780601f10610e6757610100808354040283529160200191610e92565b820191906000526020600020905b815481529060010190602001808311610e7557829003601f168201915b50505050508152602001600482018054610eab90611d24565b80601f0160208091040260200160405190810160405280929190818152602001828054610ed790611d24565b8015610f245780601f10610ef957610100808354040283529160200191610f24565b820191906000526020600020905b815481529060010190602001808311610f0757829003601f168201915b5050505050815260200160058201805480602002602001604051908101604052809291908181526020016000905b82821015610ffe578382906000526020600020018054610f7190611d24565b80601f0160208091040260200160405190810160405280929190818152602001828054610f9d90611d24565b8015610fea5780601f10610fbf57610100808354040283529160200191610fea565b820191906000526020600020905b815481529060010190602001808311610fcd57829003601f168201915b505050505081526020019060010190610f52565b505050508152602001600682015481526020016007820154815260200160088201805461102a90611d24565b80601f016020809104026020016040519081016040528092919081815260200182805461105690611d24565b80156110a35780601f10611078576101008083540402835291602001916110a3565b820191906000526020600020905b81548152906001019060200180831161108657829003601f168201915b5050505050815250509050919050565b6000816040516020016110c69190611cde565b604051602081830303815290604052805190602001206001836040516110ec9190611cde565b908152602001604051809103902060030160405160200161110d9190611dea565b6040516020818303038152906040528051906020012014156111325760019050611137565b600090505b919050565b82805461114890611d24565b90600052602060002090601f01602090048101928261116a57600085556111b1565b82601f1061118357805160ff19168380011785556111b1565b828001600101855582156111b1579182015b828111156111b0578251825591602001919060010190611195565b5b5090506111be919061126e565b5090565b828054828255906000526020600020908101928215611211579160200282015b8281111561121057825182908051906020019061120092919061113c565b50916020019190600101906111e2565b5b50905061121e919061128b565b5090565b6040518061012001604052806060815260200160008152602001606081526020016060815260200160608152602001606081526020016000815260200160008152602001606081525090565b5b8082111561128757600081600090555060010161126f565b5090565b5b808211156112ab57600081816112a291906112af565b5060010161128c565b5090565b5080546112bb90611d24565b6000825580601f106112cd57506112ec565b601f0160209004906000526020600020908101906112eb919061126e565b5b50565b6000604051905090565b600080fd5b600080fd5b600080fd5b600080fd5b6000601f19601f8301169050919050565b7f4e487b7100000000000000000000000000000000000000000000000000000000600052604160045260246000fd5b6113568261130d565b810181811067ffffffffffffffff821117156113755761137461131e565b5b80604052505050565b60006113886112ef565b9050611394828261134d565b919050565b600067ffffffffffffffff8211156113b4576113b361131e565b5b6113bd8261130d565b9050602081019050919050565b82818337600083830152505050565b60006113ec6113e784611399565b61137e565b90508281526020810184848401111561140857611407611308565b5b6114138482856113ca565b509392505050565b600082601f8301126114305761142f611303565b5b81356114408482602086016113d9565b91505092915050565b6000819050919050565b61145c81611449565b811461146757600080fd5b50565b60008135905061147981611453565b92915050565b600067ffffffffffffffff82111561149a5761149961131e565b5b602082029050602081019050919050565b600080fd5b60006114c36114be8461147f565b61137e565b905080838252602082019050602084028301858111156114e6576114e56114ab565b5b835b8181101561152d57803567ffffffffffffffff81111561150b5761150a611303565b5b808601611518898261141b565b855260208501945050506020810190506114e8565b5050509392505050565b600082601f83011261154c5761154b611303565b5b813561155c8482602086016114b0565b91505092915050565b60008060008060008060008060006101208a8c031215611588576115876112f9565b5b60008a013567ffffffffffffffff8111156115a6576115a56112fe565b5b6115b28c828d0161141b565b99505060206115c38c828d0161146a565b98505060408a013567ffffffffffffffff8111156115e4576115e36112fe565b5b6115f08c828d0161141b565b97505060608a013567ffffffffffffffff811115611611576116106112fe565b5b61161d8c828d0161141b565b96505060808a013567ffffffffffffffff81111561163e5761163d6112fe565b5b61164a8c828d0161141b565b95505060a08a013567ffffffffffffffff81111561166b5761166a6112fe565b5b6116778c828d01611537565b94505060c06116888c828d0161146a565b93505060e06116998c828d0161146a565b9250506101008a013567ffffffffffffffff8111156116bb576116ba6112fe565b5b6116c78c828d0161141b565b9150509295985092959850929598565b6000602082840312156116ed576116ec6112f9565b5b600082013567ffffffffffffffff81111561170b5761170a6112fe565b5b6117178482850161141b565b91505092915050565b600081519050919050565b600082825260208201905092915050565b60005b8381101561175a57808201518184015260208101905061173f565b83811115611769576000848401525b50505050565b600061177a82611720565b611784818561172b565b935061179481856020860161173c565b61179d8161130d565b840191505092915050565b6117b181611449565b82525050565b600081519050919050565b600082825260208201905092915050565b6000819050602082019050919050565b600082825260208201905092915050565b60006117ff82611720565b61180981856117e3565b935061181981856020860161173c565b6118228161130d565b840191505092915050565b600061183983836117f4565b905092915050565b6000602082019050919050565b6000611859826117b7565b61186381856117c2565b935083602082028501611875856117d3565b8060005b858110156118b15784840389528151611892858261182d565b945061189d83611841565b925060208a01995050600181019050611879565b50829750879550505050505092915050565b600060e08201905081810360008301526118dd818a61176f565b90506118ec60208301896117a8565b81810360408301526118fe818861176f565b90508181036060830152611912818761176f565b90508181036080830152611926818661184e565b905061193560a08301856117a8565b61194260c08301846117a8565b98975050505050505050565b600080600080600080600080610100898b03121561196f5761196e6112f9565b5b600089013567ffffffffffffffff81111561198d5761198c6112fe565b5b6119998b828c0161141b565b98505060206119aa8b828c0161146a565b975050604089013567ffffffffffffffff8111156119cb576119ca6112fe565b5b6119d78b828c0161141b565b965050606089013567ffffffffffffffff8111156119f8576119f76112fe565b5b611a048b828c0161141b565b955050608089013567ffffffffffffffff811115611a2557611a246112fe565b5b611a318b828c0161141b565b94505060a089013567ffffffffffffffff811115611a5257611a516112fe565b5b611a5e8b828c01611537565b93505060c0611a6f8b828c0161146a565b92505060e0611a808b828c0161146a565b9150509295985092959890939650565b60006020820190508181036000830152611aaa818461184e565b905092915050565b6000602082019050611ac760008301846117a8565b92915050565b60008115159050919050565b611ae281611acd565b82525050565b6000602082019050611afd6000830184611ad9565b92915050565b611b0c81611449565b82525050565b600082825260208201905092915050565b6000611b2e826117b7565b611b388185611b12565b935083602082028501611b4a856117d3565b8060005b85811015611b865784840389528151611b67858261182d565b9450611b7283611841565b925060208a01995050600181019050611b4e565b50829750879550505050505092915050565b6000610120830160008301518482036000860152611bb682826117f4565b9150506020830151611bcb6020860182611b03565b5060408301518482036040860152611be382826117f4565b91505060608301518482036060860152611bfd82826117f4565b91505060808301518482036080860152611c1782826117f4565b91505060a083015184820360a0860152611c318282611b23565b91505060c0830151611c4660c0860182611b03565b5060e0830151611c5960e0860182611b03565b50610100830151848203610100860152611c7382826117f4565b9150508091505092915050565b60006020820190508181036000830152611c9a8184611b98565b905092915050565b600081905092915050565b6000611cb882611720565b611cc28185611ca2565b9350611cd281856020860161173c565b80840191505092915050565b6000611cea8284611cad565b915081905092915050565b7f4e487b7100000000000000000000000000000000000000000000000000000000600052602260045260246000fd5b60006002820490506001821680611d3c57607f821691505b60208210811415611d5057611d4f611cf5565b5b50919050565b60008190508160005260206000209050919050565b60008154611d7881611d24565b611d828186611ca2565b94506001821660008114611d9d5760018114611dae57611de1565b60ff19831686528186019350611de1565b611db785611d56565b60005b83811015611dd957815481890152600182019150602081019050611dba565b838801955050505b50505092915050565b6000611df68284611d6b565b91508190509291505056fea2646970667358221220ebaf0ccc0e1d590f0d4953ede4cd68b47b49ded6c8fa7d0013aee53c8c8c0ced64736f6c634300080a0033",
  "immutableReferences": {},
  "source": "// SPDX-License-Identifier: MIT\r\npragma solidity ^0.8.10;\r\n\r\ncontract DonorContract {\r\n\r\n    struct pledged\r\n    {\r\n        string fullname;\r\n        uint age;\r\n        string gender;\r\n        string medical_id;\r\n        string blood_type;\r\n        string[] organ;\r\n        uint weight;\r\n        uint height;\r\n    }\r\n\r\n    struct donor\r\n    {\r\n        string fullname;\r\n        uint age;\r\n        string gender;\r\n        string medical_id;\r\n        string blood_type;\r\n        string[] organ;\r\n        uint weight;\r\n        uint height;\r\n    }\r\n\r\n    struct patient\r\n    {\r\n        string fullname;\r\n        uint age;\r\n        string gender;\r\n        string medical_id;\r\n        string blood_type;\r\n        string[] organ;\r\n        uint weight;\r\n        uint height;\r\n        string inpatient;\r\n    }\r\n    \r\n    mapping ( string =>donor ) donorMap;\r\n    mapping ( string =>patient) patientMap;\r\n\r\n    \r\n    string[] DonorsArray;\r\n    string[] PatientsArray;\r\n    \r\n    \r\n    function setDonors(string memory _fullname, uint _age, string memory _gender, string memory _medical_id,\r\n                       string memory _blood_type, string[] memory _organ, uint _weight, uint _height)\r\n    public\r\n    {\r\n        require ( keccak256(abi.encodePacked((donorMap[_medical_id].medical_id))) != keccak256(abi.encodePacked(_medical_id)));\r\n        donorMap[_medical_id].fullname = _fullname;\r\n        donorMap[_medical_id].age = _age;\r\n        donorMap[_medical_id].gender = _gender;\r\n        donorMap[_medical_id].medical_id = _medical_id;\r\n        donorMap[_medical_id].blood_type = _blood_type;\r\n        donorMap[_medical_id].organ = _organ;\r\n        donorMap[_medical_id].weight = _weight;\r\n        donorMap[_medical_id].height = _height;\r\n\r\n        DonorsArray.push(_medical_id);\r\n    }\r\n\r\n     function setPatients(string memory _fullname, uint _age, string memory _gender, string memory _medical_id,\r\n                       string memory _blood_type, string[] memory _organ, uint _weight, uint _height,string memory _inpatient)\r\n    public\r\n    {\r\n        require ( keccak256(abi.encodePacked((donorMap[_medical_id].medical_id))) != keccak256(abi.encodePacked(_medical_id)));\r\n        patientMap[_medical_id].fullname = _fullname;\r\n        patientMap[_medical_id].age = _age;\r\n        patientMap[_medical_id].gender = _gender;\r\n        patientMap[_medical_id].medical_id = _medical_id;\r\n        patientMap[_medical_id].blood_type = _blood_type;\r\n        patientMap[_medical_id].organ = _organ;\r\n        patientMap[_medical_id].weight = _weight;\r\n        patientMap[_medical_id].height = _height;\r\n        patientMap[_medical_id].inpatient=_inpatient;\r\n\r\n        PatientsArray.push(_medical_id);\r\n    }\r\n\r\n    \r\n\r\n    function getDonor(string memory _medical_id) view public returns(string memory, uint, string memory, string memory, string[] memory, uint, uint)\r\n    {\r\n        return\r\n        (\r\n            donorMap[_medical_id].fullname,\r\n            donorMap[_medical_id].age,\r\n            donorMap[_medical_id].gender,\r\n            donorMap[_medical_id].blood_type,\r\n            donorMap[_medical_id].organ,\r\n            donorMap[_medical_id].weight,\r\n            donorMap[_medical_id].height\r\n        );\r\n    }\r\n\r\n     function getPatient(string memory _medical_id) view public returns(patient memory)\r\n    {\r\n    return patientMap[_medical_id];\r\n    }\r\n\r\n    \r\n\r\n    function validateDonor(string memory _medical_id) view public returns(bool)\r\n    {\r\n\r\n     if (keccak256(abi.encodePacked((donorMap[_medical_id].medical_id))) == keccak256(abi.encodePacked(_medical_id)))\r\n        return true;\r\n     else return false;\r\n\r\n    }\r\n\r\n    function validatePatient(string memory _medical_id) view public returns(bool)\r\n    {\r\n\r\n     if (keccak256(abi.encodePacked((patientMap[_medical_id].medical_id))) == keccak256(abi.encodePacked(_medical_id)))\r\n        return true;\r\n     else return false;\r\n\r\n    }\r\n\r\n    function getAllDonorIDs() view public returns(string[] memory)\r\n    {\r\n        return DonorsArray;\r\n    }\r\n\r\n    function getAllPatientIDs() view public returns(string[] memory)\r\n    {\r\n        return PatientsArray;\r\n    }\r\n\r\n   \r\n\r\n    function getCountOfDonors() view public returns (uint)\r\n    {\r\n        return DonorsArray.length;\r\n    }\r\n\r\n    function getCountOfPatients() view public returns (uint)\r\n    {\r\n        return PatientsArray.length;\r\n    }\r\n\r\n}\r\n",
  "sourcePath": "C:\\Users\\ASUS\\organ-donation-platform\\contracts\\DonorContract.sol",
  "compiler": {
    "name": "solc",
    "version": "0.8.10+commit.fc410830.Emscripten.clang"
  },
  "schemaVersion": "3.4.16",
  "updatedAt": "2024-03-25T08:41:21.541Z",
  "networkType": "ethereum",
  "devdoc": {
    "kind": "dev",
    "methods": {},
    "version": 1
  },
  "userdoc": {
    "kind": "user",
    "methods": {},
    "version": 1
  }
}